:020000040800F2
:100000006807002089010008910100089301000899
:100010009501000897010008990100080000000000
:100020000000000000000000000000009B0100082C
:100030009D010008000000009F010008A1010008C8
:10004000A3010008A3010008A3010008A301000800
:10005000A3010008A3010008A3010008A3010008F0
:10006000A3010008A3010008A3010008A3010008E0
:10007000A3010008A3010008A3010008A3010008D0
:10008000A3010008A3010008A3010008A3010008C0
:10009000D9030008A3010008A3010008A301000878
:1000A000A3010008A3010008A3010008A3010008A0
:1000B000A3010008A3010008A3010008A301000890
:1000C000A3010008A3010008A3010008A301000880
:1000D000A3010008A3010008A3010008A301000870
:1000E000A3010008A3010008A301000800F002F822
:1000F00000F03AF80AA090E8000C82448344AAF188
:100100000107DA4501D100F02FF8AFF2090EBAE885
:100110000F0013F0010F18BFFB1A43F0010318473B
:10012000A8100000C8100000103A24BF78C878C199
:10013000FAD8520724BF30C830C144BF04680C60ED
:10014000704700000023002400250026103A28BF35
:1001500078C1FBD8520728BF30C148BF0B60704739
:100160001FB51FBD10B510BD00F031F81146FFF7E7
:10017000F7FF00F033FD00F04FF803B4FFF7F2FF94
:1001800003BC00F057F800000948804709480047C1
:10019000FEE7FEE7FEE7FEE7FEE7FEE7FEE7FEE737
:1001A000FEE7FEE704480549054A064B7047000094
:1001B00071030008ED0000086801002068070020B6
:1001C0006803002068030020704770477047754639
:1001D00000F02CF8AE4605006946534620F00700B3
:1001E000854618B020B5FFF7DDFFBDE820404FF091
:1001F00000064FF000074FF000084FF0000BAC4630
:10020000ACE8C009ACE8C009ACE8C009ACE8C0097A
:1002100021F007018D46704710B50446AFF300800A
:100220002046BDE81040FFF7A8BF00000048704717
:100230001000002001491820ABBEFEE72600020096
:100240007047000080B500F001F880BD84B0002048
:100250000390029041F20001C4F20201086840F4E8
:1002600080300860FFE741F20000C4F2020000683D
:1002700000F400300290039801300390FFE70299E8
:100280000020019039B9FFE70398B0F5A06018BFCE
:1002900001200190FFE70198C0070028E3D1FFE7A4
:1002A00041F20000C4F2020000688003002803D578
:1002B000FFE70120029002E000200290FFE7029891
:1002C000012851D1FFE742F20001C4F2020108689F
:1002D00040F010000860086820F00300086008681B
:1002E00040F00200086041F20401C4F202010091F2
:1002F0000868086008680860086840F48060086062
:10030000086820F47C100860086840F4E810086071
:1003100041F20001C4F20201086840F080700860F8
:10032000FFE741F20000C4F20200006880010028EB
:1003300001D4FFE7F5E741F20401C4F202010868C5
:1003400020F003000860086840F002000860FFE742
:1003500041F20400C4F20200006800F00C0008281A
:1003600001D0FFE7F4E700E0FFE704B070470000CA
:1003700080B541F20002C4F20202106840F00100B0
:10038000106041F20401C4F2020108680023CFF6B4
:10039000FF031840086010684FF6FF73CFF6F6634E
:1003A00018401060106820F480201060086820F465
:1003B000FE00086041F20801C4F202014FF41F0080
:1003C0000860FFF73FFF4EF60851CEF200014FF0F4
:1003D0000060086080BD000080B58AB045F64440EA
:1003E000C4F2000000684005002848D5FFE745F644
:1003F0004041C4F200014FF41C40086040F200008C
:10040000C2F2000040230693038045F64C41C4F23B
:1004100000018020086040F27001C2F2000100205B
:100420000590087045F64442C4F200026FF4806102
:10043000116040F60D11C0F600016A4611600121FD
:1004400003911A4600F0BEFD03980599069B6A4683
:100450001160032104911A4600F0B4FD0599069B32
:100460006846016002201A4600F0ACFD0498059928
:10047000069B6A4611601A4600F0A4FDDBE145F6D2
:100480004440C4F2000000680004002840F14981A3
:10049000FFE745F64440C4F20000016801F00F0197
:1004A0008DF827109DF8272045F60041C4F2000181
:1004B00051F82210ADF824109DF827100A0146F2D9
:1004C0000C01C4F200018B589DF8271001EB81024A
:1004D00040F27801C2F2000101EB82026FF39F2328
:1004E000118A01F47C41194411820068C006002879
:1004F00040F1B680FFE79DF8270078BBFFE7BDF825
:100500002400000500280FD5FFE740F25A11C2F27F
:1005100000010020029000F003FD029840F2581103
:10052000C2F20001087018E0BDF8240000040028A1
:1005300012D5FFE740F27800C2F20000007C40F2E2
:100540005811C2F20001087040F21811C2F2000105
:10055000002000F0E5FCFFE7FFE780E09DF82700C2
:1005600000EB800040F27801C2F2000101EB800054
:10057000806800788DF823009DF82300896A088040
:1005800046F22401C4F20001012008609DF8230016
:10059000302808D1FFE741F21001C4F201014FF405
:1005A000005008601CE09DF82300312808D1FFE7C7
:1005B00041F21401C4F201014FF4005008600EE052
:1005C0009DF82300322809D1FFE741F20C01C4F263
:1005D0000101086880F400500860FFE7FFE7FFE7CB
:1005E0009DF8270045F60041C4F2000151F82000B3
:1005F0004BF6BF721040ADF82000BDF8200047F662
:100600007F72104080F440509DF8272041F822006E
:1006100045F60840C4F200000068ADF820009DF8DF
:100620002000400600280DD5FFE7BDF8200047F662
:100630004F71084080F0400045F60841C4F20001C7
:100640000860FFE7BDF8200047F67F71084080F0A2
:10065000300045F60841C4F200010860FFE73BE0C6
:100660009DF82700B8B3FFE79DF8271045F6004036
:10067000C4F2000050F821004BF6BF710840ADF8FD
:100680001E00BDF81E0020F08000ADF81E009DF891
:100690001E000006002807D5FFE7BDF81E0080F009
:1006A0003000ADF81E0006E0BDF81E0020F030005E
:1006B000ADF81E00FFE7BDF81E0047F67F71084049
:1006C00080F030009DF8272045F60041C4F200017B
:1006D00041F82200FFE7FFE79DF8270000EB8001CB
:1006E00040F27800C2F2000000EB8100C068B8B1AF
:1006F000FFE79DF8270000EB800140F27800C2F28E
:10070000000000EB810350F8210059689A68D3F883
:100710000CC01B69EE46CEF800306346E047FFE7A9
:10072000FFE745F64440C4F200000068400400289A
:1007300009D5FFE745F64441C4F20001086820F4FA
:100740008040086077E045F64440C4F2000000684D
:100750000005002820D5FFE745F64441C4F200011A
:10076000086820F40060086045F64C40C4F20000C0
:100770000068400678B1FFE745F64C41C4F200013D
:100780000020086045F64041C4F20001086820F4EA
:1007900000600860FFE74EE045F64440C4F2000008
:1007A00000688004002809D5FFE745F64441C4F2FB
:1007B0000001086820F4005008603CE045F6444021
:1007C000C4F200000068C004002809D5FFE745F620
:1007D0004441C4F20001086820F4805008602AE017
:1007E00045F64440C4F2000000688005002809D5A1
:1007F000FFE745F64441C4F20001086820F40070A8
:10080000086018E045F64440C4F200000068C005E6
:10081000002809D5FFE745F64441C4F20001086805
:1008200020F48070086006E045F64441C4F20001FF
:1008300000200860FFE70AB080BD000081B08DF89D
:1008400003009DF90300002812D4FFE79DF903106F
:1008500001F01F02012090404A094EF28011CEF2B1
:10086000000141F82200BFF34F8FBFF36F8FFFE706
:1008700001B0704781B08DF803009DF90300002896
:100880000ED4FFE79DF9031001F01F0201209040F4
:100890004A094EF20011CEF2000141F82200FFE7B2
:1008A00001B0704780B582B014200190FFF7C6FFF9
:1008B000019841F21C02C4F20202116841F40001E5
:1008C000116045F64042C4F200020121116045F674
:1008D0005043C4F200030021196045F64C43C4F2B2
:1008E0000003196045F64443C4F2000319604FF455
:1008F00080611160FFF7BEFF02B080BD704700004D
:1009000081B0ADF8020001B07047000080B584B03E
:1009100040F25A10C2F20000017801F07F018DF818
:100920000F100078C0098DF80E0045F60040C4F2A3
:1009300000000068ADF80C00BDF80C0000F40040A9
:100940000290029800286ED0FFE7BDF80C00000569
:10095000002868D5FFE79DF80F000146019140B1DE
:10096000FFE70198022814D0FFE7019821281FD043
:1009700052E09DF80E0018B1FFE700F063F907E0C0
:1009800000F08CF900221046114600F069FAFFE7EA
:1009900048E040F25A10C2F200004078012806D127
:1009A000FFE700221046114600F05AFAFFE739E04F
:1009B00040F25A10C2F200004078203801460091FF
:1009C000032819D80099DFE801F00B020C1440F25B
:1009D0000201C2F200010020072200F041FA0CE0FF
:1009E0000BE040F25A10C2F200004088FFF788FF87
:1009F00003E0FFF783FF00E0FFE740F25A10C2F286
:100A000000004078212806D0FFE70022104611465A
:100A100000F026FAFFE705E000221046114600F03C
:100A20001FFAFFE742E00298C8B1FFE740F2780002
:100A3000C2F20000008A800580B1FFE740F25A1040
:100A4000C2F200004078202807D1FFE740F21810DA
:100A5000C2F2000000F0BEF8FFE7FFE725E0BDF8B6
:100A60000C00000600281FD5FFE745F64C40C4F2F5
:100A70000000006800F07F0040F27001C2F2000147
:100A8000498888420FD0FFE740F27001C2F20001AE
:100A9000488840F0800045F64C42C4F200021060E5
:100AA00001200870FFE7FFE7FFE7FFE745F600409A
:100AB000C4F2000000684BF6BF710840ADF80C00AE
:100AC000029838B1FFE7BDF80C0080F03000ADF8B7
:100AD0000C0006E0BDF80C0020F03000ADF80C0072
:100AE000FFE7BDF80C0047F67F71084080F44050E6
:100AF00045F60041C4F20001086004B080BD00006A
:100B000080B582B040F25A10C2F20000408801461F
:100B10000191B0F5807F21D0FFE70198B0F5007F0B
:100B200024D0FFE70198B0F5407F27D0FFE7019878
:100B300040F20131884229D0FFE7019840F20231AA
:100B400088422BD0FFE7019840F2033188422DD034
:100B5000FFE70198B0F5C06F30D037E041F25F1089
:100B6000C0F60000122100F0C7F830E041F21C107E
:100B7000C0F60000432100F0BFF828E041F27C10ED
:100B8000C0F60000042100F0B7F820E041F2801028
:100B9000C0F60000017800F0AFF818E041F28810CC
:100BA000C0F60000017800F0A7F810E041F2AA10AA
:100BB000C0F60000017800F09FF808E041F27110E3
:100BC000C0F60000017800F097F800E0FFE702B0FF
:100BD00080BD000081B0009001B0704780B584B046
:100BE000002003908DF80B0041F21801C4F20201BD
:100BF000086840F004000860086840F010000860D1
:100C000041F20401C4F201010191086840F440106E
:100C10000860086840F440300860086840F44050BC
:100C20000860086840F440700860086840F03000D0
:100C30000860086840F003000860FFF733FEFFE734
:100C4000FEE7000080B582B00020ADF8060040F25B
:100C50005A10C2F2000040780146009158B1FFE7F7
:100C60000098062804D0FFE7009808280AD012E070
:100C7000FFF746FF10E000200DF10601022200F010
:100C8000EFF809E040F27401C2F2000100200122F5
:100C900000F0E6F800E0FFE702B080BD81B040F26E
:100CA0005A10C2F20000407801460091052804D095
:100CB000FFE7009809280BD01BE040F25A10C2F25F
:100CC0000000408840F27001C2F20001488011E04B
:100CD00040F27001C2F200010220087040F25A1086
:100CE000C2F20000807840F27401C2F20001087084
:100CF00000E0FFE701B0704780B586B00590ADF821
:100D0000121040F25A10C2F20000C088BDF8121052
:100D1000884208DAFFE740F25A10C2F20000C088A9
:100D2000ADF81200FFE7BDF8120040F27801C2F200
:100D300000018988884207DAFFE70599BDF812208B
:100D4000002000F08DF889E0FFE7BDF812000028D0
:100D500000F08480FFE7BDF81200ADF81000BDF888
:100D6000100040F27801C2F200018988884208DD53
:100D7000FFE740F27800C2F200008088ADF8100072
:100D8000FFE70599BDF81020002000F069F8BDF8D4
:100D90001010059808440590BDF81010BDF8120019
:100DA000401AADF81200BDF8100040F27801C2F20E
:100DB00000018988401AB0FA80F040098DF80F00D0
:100DC000BDF8120028B9FFE79DF80F00002844D0B5
:100DD000FFE745F60041C4F2000108684BF6BF7218
:100DE0001040ADF80C00BDF80C0044F67F721040C6
:100DF00080F03000086044F24020C0F20F00029002
:100E0000FFE70298411E02910020019059B1FFE7CF
:100E100045F64440C4F20000006881B2012080EA37
:100E2000D1300190FFE70198C00708B1FFE7E8E77C
:100E300045F64440C4F2000000680004002801D4D4
:100E4000FFE70BE09DF80F0030B1FFE700221046EE
:100E5000114600F005F8FFE7FFE776E706B080BD32
:100E600086B08DF817000491ADF80E20BDF80E0085
:100E70009DF8171001EB810240F27801C2F20001E7
:100E800001EB8201898888420EDDFFE79DF817009B
:100E900000EB800140F27800C2F2000000EB81001C
:100EA0008088ADF80E00FFE7BDF80E000130400865
:100EB000ADF80A00049801909DF8170000EB80013E
:100EC00040F27800C2F2000050F8210000900020AB
:100ED0008DF80D00FFE79DF80D00BDF80A1088425F
:100EE00011DAFFE701989DF80D1030F81100009914
:100EF0000860FFE79DF80D0001308DF80D000098A7
:100F000004300090E7E7BDF80E009DF817100A01C5
:100F100046F20401C4F20001885006B07047000098
:100F200087B08DF8170004919DF8170000EB800141
:100F300040F27800C2F2000000EB8100008A6FF3FB
:100F40009F200390039818B9FFE70020069036E031
:100F50009DF8170000EB800140F27800C2F200001B
:100F600000EB8102118A01F47C4111820399013165
:100F7000491002919DF8171001EB810100EB8100EF
:100F8000806801900298B8B1FFE700200090FFE769
:100F90000098029988420EDAFFE7019800880499C8
:100FA000009A21F81200FFE70098013000900198A4
:100FB00004300190ECE7FFE703980690FFE70698FE
:100FC00007B0704780B583B0DDF814C08DF80B0012
:100FD0008DF80A10ADF80820ADF806309DF80A101B
:100FE0009DF80B2002F00F0040EA412045F6004139
:100FF000C4F2000141F822009DF80B2051F82200B4
:1010000043F22003584041F822000020ADF80400CC
:10101000BDF806003F2806DCFFE7BDF806004008E3
:10102000ADF8040007E0BDF806101F2000EB5110DA
:10103000ADF80400FFE79DF80B1046F20000C4F283
:10104000000040EA0111009140F20002C2F20002E9
:1010500011889DF80B301B01C150118800EB410332
:101060009DF80B1001EB810C40F27801C2F20001F7
:1010700041F82C30BDF808309DF80BC00CEB8C0CFF
:1010800001EB8C0CACF804309DF80B3046F2040CEC
:10109000C4F2000C4CEA031300939DF80B304FEAA6
:1010A000031E00234CF80E309DF80B3046F2080C5E
:1010B000C4F2000C4CEA0313009313889DF80BE074
:1010C0004FEA0E1E4CF80E30138800EB43009DF8DB
:1010D0000B3003EB830301EB83039860BDF808300A
:1010E000108800EB530010809DF80B0046F20C02B4
:1010F000C4F2000242EA00100090BDF80400800231
:101100009DF80B301B01D05005989DF80B2002EB89
:10111000820201EB8201C86003B080BD0902430076
:1011200002010080320904000001020200000524CF
:101130000010010524010001042402020524060018
:10114000010705810308001009040100020A0200DA
:10115000000705820240000007050302400000125C
:101160000100020200004083044057010001020315
:10117000010A060002020000400100000403090405
:101180000803560041004C00220355005300420062
:1011900020002D00200053006100740075007200D3
:1011A0006D005F006D006B0033001C036400650080
:1011B00076002D00700072006F0074006F007400E4
:1011C0007900700065000000E811000800000020B0
:1011D0000C00000028010008F41100081000002095
:1011E000580700004401000840008025000000006E
:0411F00008000000F3
:040000050800018965
:00000001FF
